:1009B800467265713A202020202020487A0064740D
:0C09C8003A2020202030302E3030250056
:10091E0001640304390001D97C0241000001430146
:10092E00045F00000000043D0000000002210000F2
:10093E00052330302E30300428000000000359FF0C
:0A094E000A79035CFF0A79016303D4
:04070800AB07AA068B
:10070C00E5226B7003E5216A605F7C037DE8AF0333
:10071C00AE0212022FEF2430F5237C007D64AF0370
:10072C00AE0212022F7C007D0A12022FED2430F54E
:10073C00247C007D0AAF03AE0212022F7C007D0ADE
:10074C0012022FED2430F5267C007D0AAF03AE0299
:10075C0012022FED2430F5278A218B227B007A00A0
:09076C0079237D017F0712056469
:010775002261
:0A001E00E51024FCF510F8120302AF
:10002800AF2BAE2AAD29AC28A8101202F5C31202D4
:10003800D3700302020FA8101202E98F2B8E2A8DAB
:10004800298C28E4F52C7B0AFAF9F8C000A81012CC
:1000580002E9D0001207DBEB2430F532A810C0000B
:100068001202E9E47B0AFAF9F81207DBD00012035E
:1000780002A8101202E9EC4D4E4F7003752C01E5F1
:100088002C6008E47F20FEFDFC801FE47B0AFAF95F
:10009800F8C000A8101202E9D0001207DBEB2430E8
:1000A800FFE43AFEE439FDE438FC8F31A810C000C3
:1000B8001202E9E47B0AFAF9F81207DBD00012030E
:1000C80002E52C700EA8101202E9EC4D4E4F700399
:1000D800752C01E52C6008E47F20FEFDFC801FE400
:1000E8007B0AFAF9F8C000A8101202E9D00012073A
:1000F800DBEB2430FFE43AFEE439FDE438FC8F30D2
:10010800A810C0001202E9E47B0AFAF9F81207DB2A
:10011800D000120302E52C700EA8101202E9EC4D73
:100128004E4F7003752C01E52C6008E47F20FEFD1E
:10013800FC801FE47B0AFAF9F8C000A8101202E953
:10014800D0001207DBEB2430FFE43AFEE439FDE48B
:1001580038FC8F2FA810C0001202E9E47B0AFAF9D4
:10016800F81207DBD000120302E52C700EA810125B
:1001780002E9EC4D4E4F7003752C01E52C6008E444
:100188007F20FEFDFC801FE47B0AFAF9F8C000A876
:10019800101202E9D0001207DBEB2430FFE43AFE2C
:1001A800E439FDE438FC8F2EA810C0001202E9E4FF
:1001B8007B0AFAF9F81207DBD000120302E52C706B
:1001C8000EA8101202E9EC4D4E4F7003752C01E594
:1001D8002C6007E47F20FEFC801EE47B0AFAF9F815
:1001E800C000A8101202E9D0001207DBEB2430FF90
:1001F800E43AFEE439E438FC8F2D7B007A00792D4F
:07020800E4FD7F051205640F
:07020F00E5102404F51022A4
:0E0A5900438901758CF2758AFAD2A9C28C22EB
:0D000E00438950E4F58DF58BC28EC2AB2204
:0603E2008B088A09890A5C
:1003E800C200C201D2AF12000E120A59120A0A7BC9
:1003F800FF7A0979B8E4FDFF1205647BFF7A097971
:10040800C67D01E4FF120564AB08AA09A90A120215
:10041800167003020563B2A42092202001227F6493
:100428007E00120A1E209218636401853C38853BC1
:1004380037853A36853935D2018005300102C20147
:1004480020914B7F647E00120A1E209146300043A3
:10045800C200636402E5646003B40124C2A9C28CCB
:10046800758920758D80758B80D28ED2ABE4F5406E
:10047800F53FF53EF53DF562F561F560F55F8013F2
:10048800E4F58912000E120A59754301800520000F
:1004980002D200E543B40106E56464036005E5643F
:1004A800B40207D28CD28EE4F543E564B4020AAFF5
:1004B80038AE37AD36AC358014E5647003020559A3
:1004C800E564B4030EAF3CAE3BAD3AAC3912001E46
:1004D800020410E564640160030204107F207E4E6C
:1004E800FDFCAB40AA3FA93EA83DD31202D340155C
:1004F800E47F107E27FDFCAB3CAA3BA93AA839D380
:100508001202D350167F807E387D017C00AB40AA52
:100518003FA93EA83DD31202D34036C2ABE47F10B8
:100528007E27FDFCAB62AA61A960A85F120284ABBA
:1005380040AA3FA93EA83D1207DB8E418F42E4F551
:1005480040F53FF53EF53DF562F561F560F55FD2A2
:0B055800ABAF42AE41120708020410D6
:010563002275
:10095900E4FAF9F8E5402401F540EA353FF53FE9C5
:10096900353EF53EE8353DF53DE430B5047F01807F
:1009790001FFFEFDFCE5622FF562E5613EF561E5EB
:0A098900603DF560E55F3CF55F227C
:10068300758CF2758AFA0534E5347002053364F724
:100693004533703EE58DD394324037E4F533F5347A
:1006A300C28CC28EAF8DEFFEAD8B7C00E42DFFECD0
:1006B3003EFEE48F3C8E3BF53AF539AD3AAC397BDF
:1006C30004FAF9F81202848F3C8E3B8D3A8C39E49C
:1006D300802BE53464D97004E53364037026F53365
:1006E300F534C28EC28CAF8DEFFEAD8B7C00E42D52
:1006F300FFEC3EFEE48F3C8E3BF53AF539F58DF584
:040703008B754301AE
:0107070022CF
:010A7900225A
:1009D4007559FF755A06755B83755CFF755D0975FE
:0B09E4005E597B007A0079470203E2B5
:100A46007559FF755A0A755B79755CFF755D0A7590
:030A56005E7922A4
:1008E0007544FF7545097546D4E4F5477548FF75AD
:1008F000490A754A46754BFF754C0A754D79F54E98
:10090000754FFF75500A7551797552FF75530A7509
:0E0910005479F5557556FF75570A75587922BA
:10081F00D2AFD288D2A8120A0A1208E0E563B40355
:10082F000E120006C2A47F647E00120A3280ED12FF
:10083F000006B2A4E56375F007A42447F87601E536
:10084F006375F007A42444F808E6FA08E6F91203E2
:03085F000E80C93F
:030003000207767B
:10077600C0E0C0F0C083C082C0D075D000C000C049
:1007860001C002C003C004C005C006C007C3E563BC
:10079600648094835021E56375F007A42447F876B6
:1007A60000E56375F007A42448F808E6FA08E6F9B8
:1007B60012030E05638003756300D007D006D005CB
:1007C600D004D003D002D001D000D0D0D082D083C4
:0507D600D0F0D0E0327C
:03001B0002086276
:10086200C0E0C0F0C083C082C0D075D000C000C05C
:1008720001C002C003C004C005C006C007AA5DA92A
:100882005E12030ED007D006D005D004D003D002EA
:0F089200D001D000D0D0D082D083D0F0D0E032CF
:03000B000208A147
:1008A100C0E0C0F0C083C082C0D075D000C000C01D
:1008B10001C002C003C004C005C006C007AA5AA9EE
:1008C1005B12030ED007D006D005D004D003D002AE
:0F08D100D001D000D0D0D082D083D0F0D0E03290
:1009EF00C2A6C2A5C2A78F807F017E00120A32D293
:0B09FF00A77F017E00120A32C2A7226F
:0A099300AB0CAA0DA90E120216FF0C
:10099D00D2A6C2A5C2A78F807F017E00120A32D2D5
:0B09AD00A77F017E00120A32C2A722C1
:100A0A007F381209EF7F0C1209EF7F061209EF7F78
:040A1A00010209EFDD
:050006007F010209EF7B
:080564008F0B8B0C8A0D890E30
:10056C00E4F50FEDD3940140030205F6E50B940F6F
:10057C005078EDC394015039AB0CAA0DA90E1202A0
:10058C00166067C37410950BFFE50FC39FE50F5002
:10059C00062480250B8004250B24B0FF1209EF12D2
:1005AC0009937401250EF50EE4350DF50D050F803C
:1005BC00C7AB0CAA0DA90E120216602EC3741095AF
:1005CC000BFFE50FC39FE50F500624C0250B8004DD
:1005DC00250B2470FF1209EF1209937401250EF5F7
:0A05EC000EE4350DF50D050F80C774
:0105F60022E2
:040A74007F0EDFFE14
:010A7800225B
:100A1E00AD07AC06ED1DAE0470011C4E6005120A4A
:040A2E007480F122BD
:0C0A67007F1A7E197D01DDFEDEFADFF64D
:010A73002260
:100A3200AB07AA06EB1BAE0270011A4E6005120A42
:040A42006780F122B6
:030000000205F7FF
:0C05F700787FE4F6D8FD75816402063EB2
:10021600BB010689828A83E0225002E722BBFE02E6
:09022600E32289828A83E4932219
:10022F00BC000BBE0029EF8DF084FFADF022E4CCB3
:10023F00F875F008EF2FFFEE33FEEC33FCEE9DEC7C
:10024F00984005FCEE9DFE0FD5F0E9E4CEFD22EDC2
:10025F00F8F5F0EE8420D21CFEADF075F008EF2F0C
:10026F00FFED33FD4007985006D5F0F222C398FDFD
:05027F000FD5F0EA229A
:10028400E88FF0A4CC8BF0A42CFCE98EF0A42CFC19
:100294008AF0EDA42CFCEA8EF0A4CDA8F08BF0A497
:1002A4002DCC3825F0FDE98FF0A42CCD35F0FCEBF6
:1002B4008EF0A4FEA9F0EB8FF0A4CFC5F02ECD39BB
:0F02C400FEE43CFCEAA42DCE35F0FDE43CFC2228
:1007DB00C2D5E830E70FB2D5E4C39BFBE49AFAE449
:1007EB0099F9E498F8EC30E717B2D5120811120317
:1007FB0050E4C39BFBE49AFAE499F9E498F880037C
:10080B0012035030D50DE4C39FFFE49EFEE49DFD23
:04081B00E49CFC223B
:1002D300EB9FF5F0EA9E42F0E99D42F0EC6480C8A2
:0602E30064809845F02242
:0C02E900E6FC08E6FD08E6FE08E6FF2241
:0D02F500E6FB08E6F908E6FA08E6CBF82279
:0C030200ECF608EDF608EEF608EFF62227
:06030E008A838982E4737A
:1006030002081FE493A3F8E493A34003F68001F2E6
:1006130008DFF48029E493A3F85407240CC8C333F8
:10062300C4540F4420C8834004F456800146F6DFC7
:10063300E4800B010204081020408090091EE47E30
:10064300019360BCA3FF543F30E509541FFEE493BC
:10065300A360010ECF54C025E060A840B8E493A383
:10066300FAE493A3F8E493A3C8C582C8CAC583CAAE
:10067300F0A3C8C582C8CAC583CADFE9DEE780BE66
:01095800009E
:1003140075F008758200EF2FFFEE33FECD33CDCCA0
:1003240033CCC58233C5829BED9AEC99E582984023
:100334000CF582EE9BFEED9AFDEC99FC0FD5F0D600
:10034400E4CEFBE4CDFAE4CCF9A88222B800C1B92A
:100354000059BA002DEC8BF084CFCECDFCE5F0CB68
:10036400F97818EF2FFFEE33FEED33FDEC33FCEBA1
:1003740033FB10D703994004EB99FB0FD8E5E4F95C
:10038400FA227818EF2FFFEE33FEED33FDEC33FC49
:10039400C933C910D7059BE99A4007EC9BFCE99A3D
:1003A400F90FD8E0E4C9FAE4CCFB2275F010EF2F82
:1003B400FFEE33FEED33FDCC33CCC833C810D70782
:1003C4009BEC9AE899400AED9BFDEC9AFCE899F8BD
:0E03D4000FD5F0DAE4CDFBE4CCFAE4C8F92250
:00000001FF
